:1000000026C088C13FC03EC03DC013C13BC03AC0FE
:1000100039C038C037C036C035C034C033C0000026
:10002000000036000000000037000000000038002B
:10003000020202020202020202020102040810206D
:100040002004100801020000040000000000112438
:100050001FBECFE5D2E0DEBFCDBF10E0A0E6B0E02E
:10006000ECE6F7E002C005900D92A836B107D9F78B
:1000700020E0A8E6B0E001C01D92A537B207E1F785
:1000800070D172C3BDCF823089F018F4813051F045
:100090000895833019F0843009F008958CB58F7D70
:1000A0008CBD08958AB58F778ABD08958AB58F7DF6
:1000B000FBCF1F93CF93DF93282F30E0F901EC5B48
:1000C000FF4F8491F901E65CFF4FD491F901E05DA7
:1000D000FF4FC491CC23A1F0162F8111D4DFEC2F58
:1000E000F0E0EE0FFF1FE65DFF4FA591B4918FB7D3
:1000F000F894EC91111108C0D095DE23DC938FBFEA
:10010000DF91CF911F910895DE2BF8CFCF93DF932E
:1001100090E0FC01E65CFF4F2491805D9F4FFC0165
:1001200084918823D1F090E0880F991FFC01EC5D49
:10013000FF4FA591B491FC01E65DFF4FC591D491AD
:1001400061110EC09FB7F8948C91E22FE0958E2339
:100150008C932881E223E8839FBFDF91CF9108959C
:100160008FB7F894EC91E22BEC938FBFF6CF3FB7AB
:10017000F8948091710090917200A0917300B091F9
:10018000740022B708B601FE05C02F3F19F0019692
:10019000A11DB11D3FBFBA2FA92F982F8827BC01E1
:1001A000CD01620F711D811D911D43E0660F771F08
:1001B000881F991F4A95D1F708958F929F92AF9209
:1001C000BF92CF92DF92EF92FF926B017C01CFDF63
:1001D0004B015C01C114D104E104F104B1F0C7DFAB
:1001E000681979098A099B09683E73408105910560
:1001F00088F321E0C21AD108E108F10888EE880EE0
:1002000083E0981EA11CB11CE5CFFF90EF90DF901A
:10021000CF90BF90AF909F908F90089508958BB727
:100220008F7B8BBF8EE091E09093610080936000A4
:1002300008951F920F920FB60F9211242F933F93A0
:100240008F939F93AF93BF9380916D0090916E00B9
:10025000A0916F00B091700030916C0026E0230FE8
:100260002D3758F50296A11DB11D20936C00809387
:100270006D0090936E00A0936F00B093700080911A
:10028000710090917200A0917300B091740001967A
:10029000A11DB11D8093710090937200A093730013
:1002A000B0937400BF91AF919F918F913F912F9127
:1002B0000F900FBE0F901F90189529E8230F0396FB
:1002C000A11DB11DD2CF1F920F920FB60F92112414
:1002D0002F933F934F935F936F937F938F939F934E
:1002E000AF93BF93EF93FF93E0916200F0916300AF
:1002F0000995FF91EF91BF91AF919F918F917F9160
:100300006F915F914F913F912F910F900FBE0F9082
:100310001F9018951F920F920FB60F9211242F93D2
:100320003F934F935F936F937F938F939F93AF937D
:10033000BF93EF93FF93E0916000F0916100099506
:10034000FF91EF91BF91AF919F918F917F916F91AD
:100350005F914F913F912F910F900FBE0F901F9083
:10036000189578948AB582608ABD8AB581608ABD05
:1003700083B7826083BF83B7816083BF89B78260A0
:1003800089BF80B7826080BF80B7816080BF329AAA
:10039000319A3098379A8CB580648CBD61E084E0E6
:1003A000B5DE61E081E0B2DE61E080E0AFDE61E019
:1003B00083E0ACDE60E082E0A9DE17B8369A3699B9
:1003C000FECF64B175B1072E000C880B990B611537
:1003D00071058105910509F067D1379885B7877E4A
:1003E000806185BF9CE3292E90E0392E22E3822E86
:1003F00020E0922E36E0432E512C612C712C00E02F
:1004000010E04FE0A42E41E0B42EE6E4F0E0849149
:10041000F101C491F401D491DD2321F1811133DE86
:10042000ED2FF0E0EE0FFF1FE25EFF4FA591B491BC
:100430008C91C823B9F0B0926100A092600085B79A
:100440008C7F85BF8BB780648BBF85B7806285BF8B
:1004500085B7806285BF889585B78F7D85BF85B755
:100460008F7D85BFC7E0D0E060E084E022DE60E001
:1004700081E01FDE60E080E01CDE60E083E019DEEA
:100480006FE070E080E090E098DEC0D0A3019201C0
:100490002DD16B017C01FFEFCF1ADF0AEF0AFF0AB3
:1004A000C0926800D0926900E0926A00F0926B00FE
:1004B00061E083E021E0C216D104E104F10441F0DF
:1004C00082E0C816D104E104F104B9F461E084E0EB
:1004D000F0DD6FE070E080E090E06FDE86E0C8164F
:1004E000D104E104F104D1F461E084E0E2DD61E0F3
:1004F00081E0DFDD61E080E00BC0E3E0CE16D104F7
:10050000E104F10429F561E080E0D3DD61E083E0FE
:10051000D0DD6FE070E080E090E04FDE219709F0E1
:10052000A3CF6AEF70E080E090E047DE60E084E017
:10053000C0DD60E081E0BDDD60E080E0BADD60E06C
:1005400083E0B7DD0115110509F45FCF59DD5DCFFB
:1005500061E084E0F4E0CF16D104E104F10449F253
:1005600025E0C216D104E104F10409F0B7CF61E03F
:1005700084E09FDDC8CF8F929F92AF92BF92CF92BF
:10058000DF92EF92FF92CF93DF93EC016881798144
:100590008A819B81611571058105910521F464E2D1
:1005A00079ED8BE597E02DE133EF41E050E09ED00F
:1005B00049015A0127EA31E440E050E07ED06B0166
:1005C0007C012CEE34EF4FEF5FEFC501B40175D025
:1005D000C60ED71EE81EF91EF7FE06C081E0C81A37
:1005E000D108E10880E8F80AC882D982EA82FB8251
:1005F000C701B6019F77DF91CF91FF90EF90DF9019
:10060000CF90BF90AF909F908F9008958F929F92C0
:10061000AF92BF92CF92DF92EF92FF92609164000F
:100620007091650080916600909167006115710579
:100630008105910521F464E279ED8BE597E02DE1E8
:1006400033EF41E050E052D049015A0127EA31E44A
:1006500040E050E032D06B017C012CEE34EF4FEFE4
:100660005FEFC501B40129D0C60ED71EE81EF91EE2
:10067000F7FE06C081E0C81AD108E10880E8F80A50
:10068000C0926400D0926500E0926600F09267002C
:10069000C701B6019F77FF90EF90DF90CF90BF909A
:1006A000AF909F908F900895609364007093650061
:1006B00080936600909367000895EE27FF27AA278E
:1006C000BB2708C0A20FB31FE41FF51F220F331F63
:1006D000441F551F969587957795679598F37040B9
:1006E000A9F7009799F7BD01CF010895052E97FB53
:1006F00016F400940FD057FD05D014D007FC02D09B
:1007000046F408C050954095309521953F4F4F4F86
:100710005F4F089590958095709561957F4F8F4FAD
:100720009F4F0895A1E21A2EAA1BBB1BFD010DC00D
:10073000AA1FBB1FEE1FFF1FA217B307E407F50791
:1007400020F0A21BB30BE40BF50B661F771F881F6D
:10075000991F1A9469F760957095809590959B0103
:0C076000AC01BD01CF010895F894FFCF5B
:08076C000E010E010100000066
:00000001FF
