:1000000026C088C13FC03EC03DC013C13BC03AC0FE
:1000100039C038C037C036C035C034C033C0000026
:10002000000036000000000037000000000038002B
:10003000020202020202020202020102040810206D
:100040002004100801020000040000000000112438
:100050001FBECFE5D2E0DEBFCDBF10E0A0E6B0E02E
:10006000E4EBF7E002C005900D92AA36B107D9F78C
:1000700020E0AAE6B0E001C01D92A937B207E1F77F
:1000800070D196C3BDCF823089F018F4813051F021
:100090000895833019F0843009F008958CB58F7D70
:1000A0008CBD08958AB58F778ABD08958AB58F7DF6
:1000B000FBCF1F93CF93DF93282F30E0F901EC5B48
:1000C000FF4F8491F901E65CFF4FD491F901E05DA7
:1000D000FF4FC491CC23A1F0162F8111D4DFEC2F58
:1000E000F0E0EE0FFF1FE65DFF4FA591B4918FB7D3
:1000F000F894EC91111108C0D095DE23DC938FBFEA
:10010000DF91CF911F910895DE2BF8CFCF93DF932E
:1001100090E0FC01E65CFF4F2491805D9F4FFC0165
:1001200084918823D1F090E0880F991FFC01EC5D49
:10013000FF4FA591B491FC01E65DFF4FC591D491AD
:1001400061110EC09FB7F8948C91E22FE0958E2339
:100150008C932881E223E8839FBFDF91CF9108959C
:100160008FB7F894EC91E22BEC938FBFF6CF3FB7AB
:10017000F8948091750090917600A0917700B091ED
:10018000780022B708B601FE05C02F3F19F001968E
:10019000A11DB11D3FBFBA2FA92F982F8827BC01E1
:1001A000CD01620F711D811D911D43E0660F771F08
:1001B000881F991F4A95D1F708958F929F92AF9209
:1001C000BF92CF92DF92EF92FF926B017C01CFDF63
:1001D0004B015C01C114D104E104F104B1F0C7DFAB
:1001E000681979098A099B09683E73408105910560
:1001F00088F321E0C21AD108E108F10888EE880EE0
:1002000083E0981EA11CB11CE5CFFF90EF90DF901A
:10021000CF90BF90AF909F908F90089508958BB727
:100220008F7B8BBF8EE091E09093610080936000A4
:1002300008951F920F920FB60F9211242F933F93A0
:100240008F939F93AF93BF938091710090917200B1
:10025000A0917300B09174003091700026E0230FDC
:100260002D3758F50296A11DB11D20937000809383
:10027000710090937200A0937300B093740080910A
:10028000750090917600A0917700B091780001966A
:10029000A11DB11D8093750090937600A093770007
:1002A000B0937800BF91AF919F918F913F912F9123
:1002B0000F900FBE0F901F90189529E8230F0396FB
:1002C000A11DB11DD2CF1F920F920FB60F92112414
:1002D0002F933F934F935F936F937F938F939F934E
:1002E000AF93BF93EF93FF93E0916200F0916300AF
:1002F0000995FF91EF91BF91AF919F918F917F9160
:100300006F915F914F913F912F910F900FBE0F9082
:100310001F9018951F920F920FB60F9211242F93D2
:100320003F934F935F936F937F938F939F93AF937D
:10033000BF93EF93FF93E0916000F0916100099506
:10034000FF91EF91BF91AF919F918F917F916F91AD
:100350005F914F913F912F910F900FBE0F901F9083
:10036000189578948AB582608ABD8AB581608ABD05
:1003700083B7826083BF83B7816083BF89B78260A0
:1003800089BF80B7826080BF80B7816080BF329AAA
:10039000319A3098379A8CB580648CBD61E084E0E6
:1003A000B5DE61E081E0B2DE61E080E0AFDE61E019
:1003B00083E0ACDE60E082E0A9DE17B8369A3699B9
:1003C000FECF64B175B1072E000C880B990B611537
:1003D00071058105910509F08BD1379885B7877E26
:1003E000806185BF92E3292E90E0392E26E0422ECF
:1003F000512C612C712C30E0832E30E0932E01E0E3
:1004000010E04FE0A42E41E0B42EE6E4F0E0849149
:10041000ECE3F0E0C491F101D491D1115FC01092EE
:100420006F0010926E0080916E0090916F00892B8A
:1004300009F09FC08091640090916500019709F0D8
:1004400098C0C7E0D0E060E084E033DE60E081E0A7
:1004500030DE60E080E02DDE60E083E02ADE6FE0E9
:1004600070E080E090E0A9DEF5D0A301920162D1B6
:100470006B017C01FFEFCF1ADF0AEF0AFF0AC0927F
:100480006A00D0926B00E0926C00F0926D0061E027
:1004900083E021E0C216D104E104F10449F082E0D6
:1004A000C816D104E104F10409F046C061E084E01B
:1004B00000DE6FE070E080E090E07FDE86E0C8164E
:1004C000D104E104F10409F048C061E084E0F1DD09
:1004D00061E081E0EEDD61E080E039C08111D3DDD3
:1004E000ED2FF0E0EE0FFF1FE25EFF4FA591B491FC
:1004F0008C91C82309F493CF10936F0000936E0082
:10050000B0926100A092600085B78C7F85BF8BB7E9
:1005100080648BBF85B7806285BF85B7806285BFE9
:10052000889585B78F7D85BF85B78F7D85BF1093F3
:1005300065000093640077CFE3E0CE16D104E104B8
:10054000F10449F561E080E0B4DD61E083E0B1DD14
:100550006FE070E080E090E030DE219709F073CF2B
:100560006AEF70E080E090E028DE10926500109263
:10057000640060E084E09DDD60E081E09ADD60E0A1
:1005800080E097DD60E083E094DD8114910409F45C
:100590003CCF36DD3ACF61E084E0F4E0CF16D10401
:1005A000E104F10409F496CF25E0C216D104E10478
:1005B000F10409F083CF61E084E07BDDC3CF8F924B
:1005C0009F92AF92BF92CF92DF92EF92FF92CF9322
:1005D000DF93EC01688179818A819B8161157105C6
:1005E0008105910521F464E279ED8BE597E02DE139
:1005F00033EF41E050E09ED049015A0127EA31E44F
:1006000040E050E07ED06B017C012CEE34EF4FEFE8
:100610005FEFC501B40175D0C60ED71EE81EF91EE6
:10062000F7FE06C081E0C81AD108E10880E8F80AA0
:10063000C882D982EA82FB82C701B6019F77DF9127
:10064000CF91FF90EF90DF90CF90BF90AF909F90B1
:100650008F9008958F929F92AF92BF92CF92DF9228
:10066000EF92FF9260916600709167008091680040
:1006700090916900611571058105910521F464E28D
:1006800079ED8BE597E02DE133EF41E050E052D07A
:1006900049015A0127EA31E440E050E032D06B01D1
:1006A0007C012CEE34EF4FEF5FEFC501B40129D090
:1006B000C60ED71EE81EF91EF7FE06C081E0C81A56
:1006C000D108E10880E8F80AC0926600D09267007D
:1006D000E0926800F0926900C701B6019F77FF9031
:1006E000EF90DF90CF90BF90AF909F908F90089544
:1006F0006093660070936700809368009093690030
:100700000895EE27FF27AA27BB2708C0A20FB31F13
:10071000E41FF51F220F331F441F551F9695879521
:100720007795679598F37040A9F7009799F7BD0101
:10073000CF010895052E97FB16F400940FD057FDB6
:1007400005D014D007FC02D046F408C0509540955F
:10075000309521953F4F4F4F5F4F0895909580956D
:10076000709561957F4F8F4F9F4F0895A1E21A2E8C
:10077000AA1BBB1BFD010DC0AA1FBB1FEE1FFF1F45
:10078000A217B307E407F50720F0A21BB30BE40B95
:10079000F50B661F771F881F991F1A9469F76095DC
:1007A0007095809590959B01AC01BD01CF01089596
:0407B000F894FFCFEB
:0A07B4000E010E010100010000001B
:00000001FF
